:020000040800F2
:1000000028B80120B544000855020008BF44000884
:10001000C1440008C3440008C544000800000000B3
:10002000000000000000000000000000C7440008BD
:10003000C9440008000000009D0100085515000893
:10004000CF440008CF440008CF440008CF44000844
:10005000CF440008CF440008CF440008CF44000834
:10006000CF440008CF440008CF440008CF44000824
:10007000CF440008CF440008CF440008CF44000814
:10008000CF440008CF440008CF440008CF44000804
:10009000CF440008CF440008CF440008CF440008F4
:1000A000CF440008CF440008CF440008CF440008E4
:1000B000CF440008CF440008CF440008CF440008D4
:1000C000CF440008CF440008CF440008CF440008C4
:1000D000CF440008F9170008A9070008CF4400081A
:1000E000CF440008CF440008CF440008CF440008A4
:1000F000CF440008CF440008CF440008CF44000894
:10010000CF440008CF440008CF440008CF44000883
:10011000CF440008CF440008CF440008CF44000873
:10012000CF440008CF440008CF440008CF44000863
:10013000CF440008CF440008CF440008CF44000853
:10014000CF440008CF440008CF440008CF44000843
:10015000CF440008CF440008CF440008CF44000833
:10016000CF440008CF440008CF440008CF44000823
:10017000CF440008CF440008CF440008CF44000813
:10018000CF440008CF440008DFF80CD006F014FE7E
:10019000004800479104000828B80120254B264A52
:1001A0000121C9063F2072B680F3118862B6116042
:1001B0005868002823D08446C2691968002922D1D2
:1001C000002A0AD101231B061C4A521E1C4988B072
:1001D00005A80EC00620C04300472DE9F00F002AF5
:1001E0001BD1002018602EF0040EBDE8F00F604611
:1001F0002422805C1A7A8242E4D3002058600020D6
:1002000080F311887047EFF30980BFF36F8F20E907
:10021000F00FC8616046002AE3D0186000205860E3
:10022000002181F311884EF0040EB2E8F00F82F342
:1002300009887047E8B3012004ED00E07555000817
:100240004502000802480121C9070160FEE70000DD
:1002500004ED00E008B0002080F311887047000032
:100260000DE001F08FF9F849F84800F035FFF74844
:100270000068F749884202D3F64805F013FCF0E71E
:1002800088B085E00021F34805F057FB01F0A6F99E
:100290000020F14908601BE000BFF04803F093F82C
:1002A00000F002000028F8D1E74AEB4B1B6802EB94
:1002B0008301E64AE84B1B6802EB830000F00CFF69
:1002C000E74800F0D2FEE4480068401CE2490860BC
:1002D000E1480068B0F5C87FDEDBE248E249E34A66
:1002E000E34BCDE90132CDE90310E248E24BD74AB6
:1002F0004FF4C8710090D44800F007FCDE48006855
:1003000006F027FB04460022DC4B06F035FB04D246
:10031000D848007808B1012000E00020D8490870D2
:10032000CF48006806F015FB04460D46D248006829
:1003300006F00FFB0646D2480078CDE9044506904A
:10034000CC4890F90000CDE900610290C74890F9CF
:100350000030C748CBA10268D04806F059FFCF480B
:1003600005F0B5FFCE490860CE480078CD49097840
:10037000491CCC4A1170CA49009009888AB2CA49FE
:1003800008780223C54901F0EDFEC44806F030FFAD
:1003900078E710B5044610E0C4A006F029FF01F08C
:1003A00007F901F08BFB08B101F0B4FBC5480078F8
:1003B00000B103E00A2005F0F9FDEDE700BF10BD34
:1003C00007E0C1A006F014FF01F01EF90A2005F0B5
:1003D000EDFDF6E700B587B00121084603F0D5F939
:1003E0000121480403F004FA07220221BC4803F06B
:1003F0000AF807220321BA4803F005F800208DF817
:100400001A0001208DF81B0002208DF8180004202E
:10041000059002208DF8190005A9B14802F068FF87
:1004200002208DF818000820059005A9AC4802F0BC
:100430005FFF4FF4E06002F07DFE26208DF80000A3
:1004400000208DF8020001208DF80300684602F0BC
:1004500076FE4FF4E13001900020ADF80800ADF8D1
:100460000A00ADF80C00ADF810000C20ADF80E003D
:1004700001A99C4803F02FFB012240F22551994825
:1004800003F067FC0121974803F0ADFB07B000BD06
:100490001FB500200390FFF79DFF00F073FE00F0F2
:1004A000EBFE00F0FEFE00F04DFF4FF4612001F086
:1004B000FFFA00F057FE8C49002000F073FD00F0B9
:1004C00084FD002089490860764908780978491C2C
:1004D000744B197001F0F6FA85A006F089FE714997
:1004E00008780978491C6F4B197001F0E0FB80A077
:1004F00006F07EFE6B4908780978491C694B197033
:1005000001F047FB7AA006F073FE66490878097887
:10051000491C644B197001F0DBFB75A006F068FE06
:10052000604908780978491C5E4B197001F0F7FBA7
:100530006FA006F05DFEFF206E490870102000904D
:10054000584803780078401C564A1070FF22114624
:10055000002001F02EFD674890F90000401CB0B16A
:1005600001F01FFA4F4800784E490978491C4D4A5E
:1005700011700521CDE900105F4909888AB25D49F3
:1005800008784FF480635D49096801F06FFD5CA154
:100590005C4806F03DFE002211465A4805F036FF41
:1005A0004149086004F0BCFF01220021294805F000
:1005B000B5F90022AFF25731534805F0DDFA00BF1C
:1005C0005148006800B103E0F621504801F060F89E
:1005D00000204FF47A614E4ACDE9002102904A484A
:1005E000006800231A46032184684748A04700BFDB
:1005F0000022AFF27331474805F0BEFA00BF45480C
:10060000006800B103E0FD21404801F041F80020FE
:100610004FF4FA51404ACDE9002102903D4800686C
:1006200000231A46042184683A48A04700BF0022EC
:10063000AFF2A121394805F09FFA00BF37480068A2
:1006400000B172E06CE0000034460020744C0020E1
:10065000B0AD010048000020340000200008024036
:100660002C0000201C000020180000202800002082
:1006700024000020200000201400002000C057406B
:100680003000002025692C25692C25662C25692C35
:1006900025662C25692C0A0D000000004E01002063
:1006A000440000200B0000204000002048656C6CD6
:1006B0006F2066726F6D2074687265616420330DFF
:1006C0000A0000000900002048656C6C6F2066720B
:1006D0006F6D2074687265616420340D0A0000003B
:1006E0000000024000440040600000205C00002048
:1006F0000A0D00000C000020AC000020A400002027
:10070000340000003800002054130020747B0008DF
:10071000B4030020CC3200208C130020A44200201F
:100720004FF482716A4800F0B3FF00204FF47A6101
:10073000684ACDE9002102906748006800231A4604
:10074000022184686448A04700BF0022AFF28F31C5
:10075000624805F011FA00BF6048006800B104E08B
:1007600040F20B115A4800F093FF00204FF44871FB
:100770005B4ACDE9002102905848006800231A46E0
:10078000012184685548A04700BF04F0BFFF002046
:1007900004B010BD5348006853490968884201D12C
:1007A000012070470020FCE710B540F225514F486A
:1007B00003F00AFB00283AD04C4803F043FAC4B2D5
:1007C0000D2C12D07F2C22D146480068464909687A
:1007D000884209D043480078401EC0B241490860B1
:1007E0007F21424803F02AFA20E041483D49096848
:1007F00044540D213D4803F021FA3A480078401C4A
:10080000C0B23849086001203A4908700EE0384803
:100810003449096844542146344803F00FFA3148FA
:100820000078401CC0B22F49086000BF00BF10BD57
:1008300070B504460D46E1B22C4803F0FFF900BF45
:1008400040212A4803F0AAFA0028F9D0204670BDBA
:10085000002024490968244A126891420AD0244998
:10086000214A1268885C20490978491CC9B21E4A8D
:10087000116002E000211F4A1170704770B50546F3
:10088000002400BF1B4800780028FBD000BF15489B
:100890000068154909688842F9D015481249096865
:1008A000445C11480078401CC0B20F4908600D48F4
:1008B00000680968884202D100200E49087000BF14
:1008C00040210A4803F06AFA0028F9D0204670BD9A
:1008D000747B000804330020A4420020FC45002063
:1008E000DC42002004000020000000200044004002
:1008F000CE010020080000202DE9F05F80468946E7
:100900001546A9EB050007B24FF0000A002F02DCE4
:100910005046BDE8F09F002644460CE054F82510F0
:10092000206805F010FE8346514605F0B4FD82466E
:10093000701C06B2241DBE42F0DB384605F0FBFFFA
:1009400083465946504605F030FEE2E72DE9FF4F59
:1009500083B015461F46DDF84CA0DDF8409000201E
:1009600001902C682246DDE90301FFF7C5FF06462A
:100970000290B34600BF5E46641E2246DDE90301D5
:10098000FFF7BAFF83463146584606F04BF801D2CE
:10099000BC42F0DCBC4204D1012001902C68029ED4
:1009A00000E0641C2868A0421BD1B04600BF464648
:1009B000641C2246DDE90301FFF79EFF80463146B5
:1009C000404606F02FF801D24C45F0DB4C4501D1F2
:1009D000002400E0641E2868A04202D1019800B102
:1009E00000243046129905F0E0FDCAF80000DAF85C
:1009F0000000119906F00CF800D200242C6007B01A
:100A0000BDE8F08F2DE9F05F05460E4614464FF025
:100A100000080027A946B24610E0DAF80010D9F81D
:100A2000000005F090FD8346414605F034FD804608
:100A3000781C07B209F104090AF1040AA742ECDBA9
:100A4000204605F078FF83465946404605F0ADFD47
:100A500080464046BDE8F09F2DE9FC5F81460D468B
:100A60001446002020608246CB4610E0DBF8006090
:100A70003146304605F067FD0746216805F00BFD5D
:100A800020600AF101000FFA80FA0BF1040BAA456D
:100A9000ECDB284605F04FFF07463946206805F095
:100AA00084FD2060206805F054FF074607F03CF8FD
:100AB000CDE9000105F090FFBDE8FC9F2DE9F0476E
:100AC00004460D461646002785F00049A04611E071
:100AD0004846D8F8001005F036FD8246394605F044
:100AE000DAFC07464FF07E51484605F0D4FC8146BB
:100AF00008F104082946484605F08AFFE8D931463E
:100B0000384605F052FDBDE8F0872DE9F04FADF60F
:100B1000DC4D81460D4692469846DDF800BD00202A
:100B2000CDF8D40CCDF8D00C002416E059F82400F0
:100B300005F00AFF0B90DDF8D41C05F0ACFCCDF8F5
:100B4000D40C5AF8240005F0FFFE0B90DDF8D01C01
:100B500005F0A1FCCDF8D00C641CAC42E6DB2846C5
:100B600005F0E9FE01460B90DDF8D40C05F01DFD03
:100B7000CDF8D40C284605F0DEFE01460B90DDF8DA
:100B8000D00C05F012FDCDF8D00C00240DF5CE668A
:100B90000CAF16E059F8240005F0D6FE0B90DDF8F6
:100BA000D41C05F0CAFC30605AF8240005F0CCFED5
:100BB0000B90DDF8D01C05F0C0FC3860641C361DBD
:100BC0003F1DAC42E6DB894A89490DF5CE60FFF74F
:100BD00075FFCDF8B80C854A85490CA8FFF76EFF64
:100BE000CDF8B40C00248348CDF8B00C0DF5CE66DA
:100BF0000CAF20E0DDF8B01CDDF8B80C05F0A3FC6C
:100C00000B90316805F09CFC3060DDF8B01CDDF81D
:100C1000B40C05F098FC0B90396805F091FC386035
:100C2000641C4FF07E51DDF8B00C05F034FCCDF8BB
:100C3000B00C361D3F1DAC42DCDB0DF6C842294628
:100C40000CA8FFF709FFCDF8C40C0DF6CC422946DD
:100C50000DF5CE60FFF700FFCDF8C00C0DF6C840D3
:100C600003C805F070FC039005F073FECDE90401A4
:100C700006F05AFF2A46CDE908010CA90DF5CE6011
:100C8000FFF7C0FE059005F064FECDE90601DDE941
:100C9000082305F0E1FDCDE90A0105F09DFEDDF830
:100CA000101D0860DDF8101D0868534905F0BAFEF4
:100CB00014D84FF07C524FF41673DDF8CC1CDDF8DD
:100CC0000C0DCDE90032CDE90210C0234B4A4FF4A0
:100CD000C8710DF5CE60FFF739FE02E000204749EC
:100CE00008604648006868B14448006845F6C0514D
:100CF00091FBF0F1DDF8040D01600121DDF8080D34
:100D0000017015E04FF485703C4908603C49DDF8FE
:100D1000040D01600021DDF8080D01703948C8F8A4
:100D2000000000208BF800000DF6DC4DBDE8F08FD0
:100D3000DDF8D01CDDF8C00C05F005FC0B90DDF8EB
:100D4000D41CDDF8C40C05F0FEFB0A900B9905F0ED
:100D50002CFCCDF8BC0CDDF8BC0C05F0FAFD2A4AE1
:100D60002A4BCDE90A0105F01FFE36D2DDF8BC0C96
:100D700005F0EFFD264A274BCDE90A0105F0FCFD01
:100D80002BD2DDF8BC0C05F0E4FDCDE90601DDF861
:100D9000BC0C05F0DEFD204A204BCDE9000105F03A
:100DA000E9FC1F4A1F4BCDE9020105F03CFCCDE9EF
:100DB0000401DDE9062305F0DDFC1B4A1B4BCDE9F0
:100DC000080105F030FCCDE90A0105F005FEC8F880
:100DD000000001208BF8000005E00A48C8F8000078
:100DE00000208BF8000000BF9EE7000068C2A24A06
:100DF00000804743008047C3CDCC4C3F50000020CB
:100E000019FCFFFF00C079C47B14AE47E17A943F20
:100E1000713D0AD7A370FD3F48E17A14AE8746C002
:100E2000B4C876BE9F5A3E40AE47E17A14B65740EA
:100E3000FE4905E0081EA1F1010101D10120704722
:100E4000FB48008800F002000028F3D100BFF6E75D
:100E500070B50446F54D08E0281EA5F1010504D142
:100E6000F4A006F0C5F9012070BDF148001F00880C
:100E700020400028F0D00020F6E710B50446EC48EA
:100E8000083804808020FFF7E3FF10BD70B50446EA
:100E90000D4645EA4400E649083908800220FFF77C
:100EA000D7FF70BD10B5E2481838008840F4807054
:100EB000DF49183908800120FFF7CAFF10BD70B55F
:100EC00006460C461546FFF7EDFF00213046FFF7BA
:100ED000DDFFD748008803E014F8010BFFF7CDFFD2
:100EE000281EA5F10105F7D10420FFF7B1FFD04876
:100EF0001838008840F40070CD4918390880FFF791
:100F000097FF002070BD38B505460C468DF800509F
:100F10008DF80140022269465720FFF7D0FF0120DB
:100F200038BD70B504464020FFF792FF05462DB945
:100F3000BF48083800882070002070BD2846FCE7B4
:100F400070B506460C461546FFF7ACFF012130464A
:100F5000FFF79CFFB648008803E02046641CFFF7BB
:100F6000E0FF28466D1E0128F7D8B14818380088E0
:100F70004FF6FF310840AE4918390880084600880E
:100F800040F4007008802046FFF7CBFFFFF750FFCA
:100F9000A7481838008840F48060A54918390880AF
:100FA000002070BD38B504460D4600940122694604
:100FB0005720FFF784FF012269465720FFF7C0FF43
:100FC0009DF800002870012038BD10B5C021022016
:100FD000FFF799FF08B9002010BD00210320FFF79B
:100FE00092FF08B90020F7E700210420FFF78BFFEC
:100FF00008B90020F0E700210520FFF784FF08B9B9
:101000000020E9E700210620FFF77DFF08B9002056
:10101000E2E70F210820FFF776FF08B90020DBE7A1
:1010200003210920FFF76FFF08B90020D4E72B2127
:101030000A20FFF768FF08B90020CDE724210C2023
:10104000FFF761FF08B90020C6E724210D20FFF754
:101050005AFF08B90020BFE77F211020FFF753FF98
:1010600008B90020B8E70120B6E72DE9F04F85B0B8
:10107000824601212120FFF746FF02A90120FFF748
:1010800091FF04A91F20FFF78DFF03A92020FFF780
:1010900089FF9DF80C0005F057FC834605F059FCCC
:1010A00006460022664B05F065FB04460D469DF999
:1010B000100005F040FC064605F04BFC22462B468E
:1010C000CDE9000105F0AFFA804605F085FCCAF8CD
:1010D000000005B0BDE8F08FFEB506460C460020C6
:1010E0003060206002A9FFF75DFF02A90120FFF731
:1010F00059FF07208DF80000012269465720FFF7AD
:10110000DEFE062269465720FFF71AFF9DF80050C1
:101110002D043068284430609DF801502D0230685D
:10112000284430609DF802503068284430609DF8B3
:1011300003502D042068284420609DF804502D029F
:101140002068284420609DF80550206828442060CD
:101150003068C0F3110030602068C0F311002060D7
:101160000120FEBD10B540210920FFF7CCFE20B9BB
:1011700034A006F03DF8002010BD36A006F038F887
:101180000120F9E700B587B00121C80502F030FB66
:101190000121C80502F096FB00214FF4000002F087
:1011A00091FB0121052002F0F0FA4FF480700590C8
:1011B00002208DF8180003208DF8190001208DF809
:1011C0001A008DF81B0005A9274802F091F84FF48A
:1011D0000070059005A9254802F08AF8042208212C
:1011E000214802F010F904220921204802F00BF9ED
:1011F0000020ADF808004BF6FF70ADF80A000020A3
:10120000ADF80C004FF48060ADF80E000001ADF8B1
:1012100010001748019001A90548183802F047FE50
:1012200001210348183802F0BEFE23E00024F40038
:10123000185C0040493243204572726F720A0D00FB
:101240000000B03F5265736574204661696C656447
:101250000A0D0000526573657420537563636573EE
:101260007366756C0A0D0000000002400008024021
:10127000A086010007B000BD1CB50121042002F0CA
:1012800084FA0220009000208DF8040003208DF8DD
:10129000050000208DF807006946A04802F028F8F4
:1012A0001CBD00B589B00121082002F06EFA4FF490
:1012B0008050079001208DF8200003208DF8210038
:1012C00000208DF8220001208DF8230040030590B6
:1012D00001208DF8180003208DF8190000208DF8EA
:1012E0001A0001208DF81B008003039001208DF867
:1012F000100003208DF8110000208DF8120001204D
:101300008DF81300C003019001208DF80800032020
:101310008DF8090000208DF80A0001208DF80B00DF
:1013200007A97F4801F0E4FF05A97D4801F0E0FF2F
:1013300003A97B4801F0DCFF01A9794801F0D8FF3F
:1013400009B000BD1CB50121042002F01EFA0120E5
:10135000009000208DF804008DF8060003208DF821
:10136000050002208DF8070069466D4801F0C0FFB6
:101370001CBD70B505460E461446FFF793FD0021CF
:101380002846FFF783FD67480088664808380480D0
:101390000420FFF75DFD63481838008840F40070B2
:1013A000604918390880FFF743FD002070BD70B513
:1013B00006460C461546FFF775FD01213046FFF73E
:1013C00065FD012D1DD15748183800884FF6FF31B3
:1013D0000840544918390880524800880846008857
:1013E00040F4007008802046FFF79BFDFFF720FDCA
:1013F0004C481838008840F480604A491839088001
:101400006DE0022D34D14748183800884FF6FF317F
:1014100008404449183908800846008840F40060B4
:101420000880404800880420FFF712FD3D48183826
:10143000008840F400703B49183908802046641C3D
:10144000FFF76FFD2046FFF76CFDFFF7F1FC354815
:101450001838008840F480603249183908800846FE
:1014600000884FF2FF7108402E491839088036E095
:101470002C48008803E02046641CFFF752FD2846F4
:101480006D1E0328F7D80420FFF7E2FC2548183822
:1014900000884FF6FF31084022491839088020465D
:1014A000641CFFF73EFD0420FFF7D2FC1D481838EE
:1014B000008840F400701B49183908802046641CDD
:1014C000FFF72FFD2046FFF72CFDFFF7B1FC154875
:1014D0001838008840F480601249183908800020CC
:1014E00070BD2DE9F04107460C4615461E46FFF734
:1014F000D9FC00213846FFF7C9FC0A480088094892
:10150000083804800420FFF7A3FC324629463846F9
:10151000FFF74DFF0020BDE8F08100000008024009
:10152000000C0240185C00406649086004E0654910
:101530000968491E634A1160624909680029F6D1A9
:1015400070476048006820B15E480068401E5D49F1
:101550000860704710B5002003F076FE00BF00BFA2
:1015600072B63F2000F0AAF862B600BF04F075F82A
:1015700018B14FF0805054490860002000F09EF8E8
:1015800000BF10BD10B500BF00F095F8044600BFC5
:1015900072B63F2000F092F862B600BF00BF4FF471
:1015A00000414A4801F02BFF204600F087F810BDAB
:1015B00010B500BF00F07FF8044600BF72B63F20B0
:1015C00000F07CF862B600BF00BF4FF480513F4886
:1015D00001F015FF204600F071F810BD10B500BFF6
:1015E00000F069F8044600BF72B63F2000F066F8CC
:1015F00062B600BF00BF4FF48041344801F0FFFEE7
:10160000204600F05BF810BD10B500BF00F053F8A5
:10161000044600BF72B63F2000F050F862B600BF2B
:1016200000BF4FF40051294801F0E9FE204600F0C8
:1016300045F810BD70B502F0D0FE254800684FF4A3
:101640007A72B0FBF2F1481EB0F1807F00D31CE04B
:10165000481E4FF0E022506150170F22002808DA90
:1016600013071D0E184B143300F00F04241F1D55D3
:1016700003E013071C0E174B1C5400BF00204FF053
:10168000E02290610720106100BF70BD7047704775
:1016900000BFBFF34F8F0C480830006800F4E060D3
:1016A0000D490843001D084908310860BFF34F8FFA
:1016B00000BF00BFFEE7EFF31180704780F3118891
:1016C000704700006400002004ED00E0000C0240C0
:1016D0000001002000E400E00000FA0510B588B029
:1016E00004460121022002F050F80121102002F0EE
:1016F00090F8072206214B4801F085FE072211468B
:10170000484801F080FE00208DF81E0001208DF871
:101710001F0002208DF81C004020069002208DF84A
:101720001D0006A93F4801F0E3FD02208DF81C00D2
:101730008020069006A93B4801F0DAFD4FF4E060F6
:1017400001F0F8FC25208DF8040000208DF806003B
:1017500001208DF8070001A801F0F1FC029400209F
:10176000ADF80C00ADF80E00ADF81000ADF81400A7
:101770000C20ADF8120002A92B4802F0ACF90122AE
:1017800040F22551284802F0E4FA0121264802F0EF
:101790002AFA08B010BD70B505460E4600240BE0CD
:1017A000295D214802F04AFA00BF40211E4802F09C
:1017B000F5FA0028F9D0641CB442F1DB70BD1B4877
:1017C00000681B490968884201D101207047002048
:1017D000FCE7002015490968154A126891420AD0B1
:1017E0001449134A1268885C11490988491CC1F3DD
:1017F0000B010F4A1160704710B540F225510A489D
:1018000002F0E2FA68B1084802F01CFA0949074AF6
:101810001268885405480088401CC0F30B00034937
:10182000086010BD00040240001001406C00002060
:1018300068000020B45200202DE9FF470646884684
:101840006F46347800BF04F0FFFC0068005D20287C
:1018500003D0002004B0BDE8F08700254FF00A094E
:10186000302C0ED1701C06460478782C01D0582CF0
:1018700005D14FF01009701C0646047801E04FF0C6
:10188000080900BF04F0E0FC0068005D202807D1D3
:10189000A4F1300005FB0905701C06460478F1E749
:1018A000B9F1100F1CD104F0CFFC006810F804A0AF
:1018B0008AEA8A0000F0800090B104F0C5FC00685C
:1018C000005D00F0080008B1612100E0412104F151
:1018D0000A00401A40EA0515701C06460478D1E754
:1018E00000BF00BF2E2C09D103A8874201D30020DE
:1018F000B0E720C7701C06460478A4E700BF00BF0D
:1019000044B104F0A1FC0068005D00F0010008B9DA
:1019100000209FE76846381A012101EBA000052846
:101920002AD2DFE800F00305060F1B00002091E734
:1019300022E0B5F1807F01D300208BE7009845EAD3
:10194000006519E0B5F5803F01D3002082E70098DB
:101950000006019940EA014005430DE0FF2D01D941
:10196000002077E700980006019940EA01400299BB
:1019700040EA0120054300BF00BFB8F1000F02D0CC
:1019800028BAC8F80000012064E738B50446694663
:101990002046FFF751FF08B1009838BD4FF0FF30E7
:1019A000FBE700B58BB0F84804F091FC18B9F7A13B
:1019B000F54804F093FCF94804F089FC18B9F8A143
:1019C000F64804F08BFCF8A103A805F021FC03A85D
:1019D00004F07DFC18B103A9EB4804F07FFCEA4851
:1019E000FFF7D3FFF449086008460068401C10B1B7
:1019F0000846006818B94FF0FF300BB000BDEFA1EA
:101A000001A805F005FCEFA005F0F2FB01A804F029
:101A10005EFC18B101A9E14804F060FC0022114607
:101A2000DE4804F0F3FCE84908600846006800BAA4
:101A3000000C086008460068B0F5803F05DBE3A0B5
:101A400005F0D6FB4FF0FF30D7E70020D5E71CB5F7
:101A5000E748006828B9E7A005F0CAFB4FF0FF305F
:101A60001CBDE3480068EC490860ECA005F0C0FB31
:101A70006946F3A004F04AFCD2A005F0B9FB0022AD
:101A80001146684604F0C2FCEE490860084600684A
:101A900000BA000C086008460068B0F5803F05DB1E
:101AA000CAA005F0A5FB4FF0FF30D9E70020D7E72B
:101AB00010B50446204601F0DFFA10BD10B501F064
:101AC000E1FA10BD38B5044600208DF800008DF80D
:101AD000014055208DF8020053208DF803000023AB
:101AE00004226946502001F0D3FAD7A005F080FB0C
:101AF00038BD38B5044601208DF800008DF801404E
:101B0000002302226946502001F0C2FAD1A005F05C
:101B10006FFB38BD10B501F0D4FA10BD38B50446DE
:101B2000CF48007880F00100CD49087007208DF87B
:101B300000008DF80140084600788DF80200002072
:101B40008DF80300002304226946502001F0A0FA1A
:101B5000C4A005F04DFB42F21070C64908600EE0CB
:101B6000FFF7ACFF08B1FFF7D5FFC348007818B105
:101B70000020C14908700AE00120FFF7D5FCBD48EC
:101B800001680068401EBB4A10600029E8D100BF10
:101B900038BD70B5A2B005460020019002AC02200D
:101BA00004F8010B04F8015BB4A1B64805F030FB62
:101BB00009E0B5A005F01CFBB249A1A004F0A6FB0A
:101BC00080A005F015FBAF4804F081FB0028F0D0A1
:101BD000AC4804F07CFB06463246AA49204604F095
:101BE00040FBA84804F073FB0444002004F8010BF8
:101BF000AEA101A805F00CFB01A804F03FFCAC4924
:101C000008700846007888B1AAA1AD4805F000FB2D
:101C1000AB4804F05CFBAB4908700846007800282C
:101C200004DCA9A005F0E4FA22B070BDA048007859
:101C300004F8010BA348007804F8010BA1480078D0
:101C400040B1A04802789E49204604F00AFB9D4816
:101C50000078044402A8221A002302A9502001F0AF
:101C600017FA9DA005F0C4FA42F21070814908608D
:101C70000FE0FFF723FF08B1FFF74CFF994800780A
:101C800018B10020974908700BE04FF47A70FFF705
:101C90004BFC784801680068401E764A10600029B5
:101CA000E7D100BF00209049086000BFBCE738B50D
:101CB000044603208DF800008DF801400023022225
:101CC0006946502001F0E4F988A005F091FA38BD8A
:101CD0001CB50446002000908DF804008DF80540E6
:101CE000BDF80000ADF806000023042201A9702011
:101CF00001F0CEF981A005F07BFA1CBD38B5044691
:101D000001208DF800008DF8014000230222694671
:101D1000702001F0BDF97CA005F06AFA38BD1FB54E
:101D200004460B208DF800008DF8014000208DF84E
:101D3000020001208DF80300002304226946702070
:101D400001F0A6F974A005F053FA42F21070494967
:101D500008600FE0FFF7B2FE08B1FFF7DBFE724844
:101D6000007818B10020704908700BE04FF47A70C9
:101D7000FFF7DAFB3F4801680068401E3D4A1060EB
:101D80000029E7D100BF1FBD186900203139322E6C
:101D90003136382E31302E313031000090000020A5
:101DA00030783639393000003139322E3136382E1C
:101DB000312E313400000000A400002031323334D1
:101DC000000000000A0D0000AC000020496E7661A2
:101DD0006C696420706F72742C206D6178206C695E
:101DE0006D697420307846464646200A0D00000092
:101DF0008800002049502061646472657373206814
:101E00006173206E6F74206265656E206F6274610D
:101E1000696E65642E0A0D00A8000020456E746589
:101E2000722073657276657220706F7274206E75A1
:101E30006D62657220746F207365743A200A0D001C
:101E400025730000B00000202D576966694F6E0AA7
:101E50000D0000002D576966694F66660A0D000087
:101E60007D0000202D4150207374617475730A0D3C
:101E700000000000700000209A00002070706F5F6A
:101E80006273000054680020535349442063616E1C
:101E9000277420626520656D7074792E20456E74FC
:101EA000657220535349443A0A0D00003400000083
:101EB0007C0000206C6966656C696E65000000003E
:101EC000746800207E000020496E76616C69642091
:101ED0004B65790A0D0000002D576966694A6F69E4
:101EE0006E0A0D0099000020800000202D576966C1
:101EF00069446973636F6E6E0A0D00002D536E693D
:101F000063496E69740A0D002D536E6963436C65F5
:101F1000616E75700A0D00002D536E696349504360
:101F20006F6E6669670A0D009B0000201CB50446B1
:101F30000020009009208DF804008DF80540F9A0DC
:101F400005F056F96946AFF2081004F0DFF9AFF278
:101F50008C1005F04DF9684604F090FAC0B28DF887
:101F600006000023032201A9702001F091F8F7A0D8
:101F700005F03EF942F21070F84908600FE0FFF7F3
:101F80009DFD08B1FFF7C6FDF548007818B10020A7
:101F9000F34908700BE04FF47A70FFF7C5FAEF4889
:101FA00001680068401EED4A10600029E7D100BFBB
:101FB0001CBDFFB583B004460D461E460C9F8DF830
:101FC00000708DF801608DF8024064B1CDF80350C7
:101FD000BDF81400ADF807000023092269467020FF
:101FE00001F056F805E0002303226946702001F055
:101FF0004FF8DCA005F0FCF842F21070D7490860F9
:102000000FE0FFF75BFD08B1FFF784FDDA480078C9
:1020100018B10020D84908700BE04FF47A70FFF730
:1020200083FACE4801680068401ECC4A106000293F
:10203000E7D100BF002007B0F0BD38B504460D461B
:1020400003208DF800008DF801508DF80240002328
:1020500003226946702001F01BF8C8A005F0C8F8FB
:102060002146CAA005F0C4F8002038BDFFB583B0F2
:1020700004460D46DDE90C67BDF8180020B1BDF837
:102080001800B0F5006F02DD4FF4006006901220DA
:102090008DF800008DF801708DF80240CDF80350E6
:1020A000BDF81400ADF80700BDF8180000BA000C28
:1020B0000690BDF81800ADF809008DF80B600023FC
:1020C0000C226946702000F0E3FFB5A005F090F8FF
:1020D000B948FFF729FA0EE0FFF7F0FC08B1FFF767
:1020E00019FDB648007818B10020B449087003E023
:1020F0000120FFF719FAEFE700BF002007B0F0BD9D
:102100007FB582B0054614461E46BDF80C0020B1CE
:10211000BDF80C00B0F5006F02DD4FF400600390D5
:102120000CB1042C00DD042411208DF800008DF882
:1021300001608DF80250BDF80C0000BA000C03904D
:10214000BDF80C00ADF803008DF805400023062211
:102150006946702000F09CFF99A005F049F8002026
:1021600006B070BD2DE9F041ADF5016D05460E4696
:1021700014469846DDF8287814B1B4F5006F01DDF7
:102180004FF4006402208DF808008DF809708DF876
:102190000A5000208DF80B0020BA000C0190BDF809
:1021A0000400ADF80C00224631460DF10E0004F09B
:1021B00058F8A21D002302A9702000F069FF0EE06C
:1021C000FFF77CFC08B1FFF7A5FC8348007818B145
:1021D00000208149087003E00120FFF7A5F9EFE72F
:1021E00000BF00200DF5016DBDE8F0812DE9F04F35
:1021F00087B0044620780690069882283ED004DCFA
:1022000010285CD0112871D167E0842802D087287B
:10221000F9D140E0012071490870A07818B970A088
:1022200004F0E6FF29E0142101A804F033F80025AA
:1022300000BF09E0E91C625C01A9032303FB051050
:102240006AA104F0E5FF6D1C062DF3DB01A804F084
:102250003EF8401E01A900220A5466A004F0C8FFFF
:10226000A078012803D169A004F0C2FF04E004F1C2
:1022700009016DA004F0BCFF00BF84E101206F499B
:102280000870A07818B96EA004F0B2FF02E070A048
:1022900004F0AEFF77E1012070490870A07850B9D2
:1022A0006F48007818B16FA004F0A2FF06E070A09C
:1022B00004F09EFF02E071A004F09AFF63E1E07871
:1022C000102806D172A004F093FF01207449086021
:1022D00002E074A004F08CFF55E194F8028003251D
:1022E0002027B8F1000F1BD10026E9E04AE106EBF8
:1022F0004600704901EB00108068009006EB460034
:102300008C460CEB0010436806EB46000CEB00100B
:10231000026806EB46000CEB001000F10C01CBE06C
:10232000DFE000000A0D496E746572666163652026
:10233000547970653F2028303A2053544120203191
:102340003A20415029200A0D000000002D536E69EB
:1023500063476574446863700A0D000070000020D4
:102360009C0000202D746370437265617465536F27
:10237000636B65740A0D0000A00000202D636C6F74
:102380007365536F636B65740A0D0000536F636B65
:10239000657420256420636C6F7365640A0D00000A
:1023A0002D746370436F6E6E656374546F53657202
:1023B0007665720A0D00000040420F009D0000206B
:1023C0002D746370437265617465436F6E6E6563EF
:1023D00074696F6E0A0D00009E00002098000020B6
:1023E00057694669204F66662E0A0D00253032581F
:1023F0003A00000057694669204F6E2E20204D613B
:10240000633A2025732E2020000000004E6F7420B8
:102410006A6F696E656420616E79206E6574776F8E
:10242000726B2E0A0D0000004A6F696E65642053BE
:102430005349443A2025730A0D00000099000020FA
:102440004A6F696E20737563636573730A0D0000CC
:102450004A6F696E206661696C0A0D009A0000205F
:102460007D0000204150206973204F4E0A0D00006E
:102470004150206973204F46460A0D0041502063A9
:102480006F6E74726F6C206661696C0A0D000000DB
:102490004E6574776F726B2055500A0D0000000076
:1024A000800000204E6574776F726B20446F776EEA
:1024B0000A0D0000B4620020F6A004F099FE761C1C
:1024C000FE4800788642FFF612AFFC48007800EB29
:1024D00040000101FA4803F0DDFE0020F7490870D2
:1024E0004FE048E028466D1C14F8009028466D1C0B
:1024F00014F800B028466D1C14F800A0AD1D6D1C2A
:10250000AD1C601903F0E3FEC7B2202F00DD37E0F9
:102510006119EA4A127802EB4202E94B03EB02121C
:1025200002F10C0003F0DAFEE448007800EB400012
:10253000E34901EB0010C0F80090E048007800EBA0
:10254000400001EB0010C0F804B0DC48007800EB5C
:10255000400001EB0010C0F808A02FB900E06D1C8E
:10256000605D0028FBD001E0781C0544D34800786A
:10257000401CD2490870B8F10000A8F10108B1D19F
:1025800000BF00E000BF00BFAFF2A41004F030FEB7
:1025900007B0BDE8F08F2DE9F04F87B0044694F8FE
:1025A00000804046B8F1900F53D014DC252873D03A
:1025B00008DC20287CD0212870D022286FD0232846
:1025C0006ED11FE182286CD083280FD089282AD0B1
:1025D0008B28F5D114E091380B2861D2DFE800F0A8
:1025E00062503C6060E7E6E5E43A3B00A07818B151
:1025F000B4A004F0FDFD02E0B8A004F0F9FDB1E2E2
:102600000120BA4908700020B9490860A07830B9A3
:10261000B8A004F0EDFD0120B549086002E0B9A0C2
:1026200004F0E6FD9EE20120BA490870A07860B986
:10263000207B0090E37AA27A617AB7A004F0D8FDFB
:10264000BD48D4F80910016002E0BCA004F0D0FD40
:1026500088E200BF00BF00BF0120BD490870A0781C
:1026600050B9E07840B2BB490870084690F90010B4
:10267000B9A004F0BDFD02E0BCA004F0B9FD71E218
:102680000120C1490870A078182804D0A07810B1A2
:10269000BEA004F0ADFD65E245E209E0A4E02BE058
:1026A0005FE21AE0A07810B1BFA004F0A1FD59E2EA
:1026B000A078122806D1C4A004F09AFDE078C84999
:1026C000087009E0A0780B2806D1E178C5A004F0D5
:1026D0008FFDE078C849087044E20121C74A1170B3
:1026E000A17841B9C6490968491CC54A11602179D8
:1026F000E27841EA022035E200252079E17840EADB
:102700000126A778BFA004F073FD00BF05E0681D97
:10271000215CBFA004F06CFD6D1CB542F7D30A200C
:10272000FEF702FF0522BBA1601D03F0E0FD28B10A
:102730000622BAA1601D03F0DAFDA0BB0020B94952
:1027400008600BE0B7480068401D215CB0A004F0B1
:102750004FFDB4480068401CB2490860B1480068A9
:10276000B042EFD30020AF49086008460268006815
:10277000401C0B46AC491860AC4804F049FDAB481E
:1027800003F0A5FD1FFA80F9A9480078A849097847
:10279000491CA74A11700090F8B202234A46A34987
:1027A000FFF7E0FC1FE003E047E047E044E037E0EC
:1027B0000722A0A1601D03F09AFDA0B9002505E045
:1027C000681D215C92A004F013FD6D1CB542F7D387
:1027D000974A11781278521CDFF854C28CF8002006
:1027E000F8B2FFF72AFCBDE1A578E0790090A37963
:1027F0006279217991A004F0FBFCE17899A004F0C2
:10280000F7FCAFE1B4F8090000BA020C9B4801687C
:102810000068401C994D286099A004F0E9FCA1E1F2
:10282000012099490870A07810B198A004F0E0FC4C
:1028300001209A49087095E100BF00BF0FF24419CA
:10284000A08885B2002705F4004A00200490059076
:10285000069094F801B0B4F9026030BA000C06B2E8
:1028600028BA050CB8F1980F03D18DA104A803F084
:1028700035FDC5F30E05642E06DB04F10609484656
:1028800003F025FD401C07B2642E01DA5B460BE124
:1028900010E10000535349443A202532307320435D
:1028A000483A2025326420525353493A2025336454
:1028B000205365633A2025640A0D0000740000204F
:1028C000B4620020436C6F736520736F636B657433
:1028D000206661696C65640A0D000000536F636BCC
:1028E000657420636C6F7365640A0D009B000020A3
:1028F000840000204950436F6E666967204F4B0A81
:102900000D0000004950436F6E666967206661697B
:102910006C0A0D009C0000204950206173736967A8
:102920006E65642061732025692E25692E25692E28
:102930002569200A0D000000880000204950206E03
:102940006F742061737369676E65640A0D0000001F
:10295000A00000200C000020536F636B65742025DD
:1029600064206F70656E65640A0D0000536F636BC1
:102970006574206372656174696F6E206661696C4D
:1029800065640A0D000000009D000020556E616224
:102990006C6520746F20636F6E6E65637420736561
:1029A000727665720A0D0000556E61626C65207466
:1029B0006F206372656174652054435020736572A3
:1029C0007665720A0D000000536F636B65742063B7
:1029D0006F6E6E656374696F6E2055500A0D00004E
:1029E0000D000020536F636B657420256920636CB4
:1029F0006F7365640A0D00000E0000209E00002029
:102A00008C00002046726F6D2042533A2000000077
:102A100025630000474554202F000000504F5354B9
:102A2000202F0000D0000020BC7C00083869002066
:102A30000B000020485454502F312E004163636531
:102A40007074656420636F6E6E656374696F6E2069
:102A500066726F6D2025692E25692E25692E2569E0
:102A60000A0D0000436F6E6E656374696F6E2073AC
:102A70006F636B65743A2025640A0D00C80000205E
:102A800025642025640A0D009F0000205544502035
:102A900053656E64206261640A0D0000C40000206A
:102AA0006D6F726520000000324604A931A004F069
:102AB0009FFB57E0BAF1000F01D037A000E037A02C
:102AC0005B46324604A9CDE900590290344804F02F
:102AD0008FFB00203349086027B333A1484603F039
:102AE000E4FB98B932A1484603F0DFFB70B931A18D
:102AF000484603F0DAFB48B931A1484603F0D5FB5C
:102B000020B931A1484603F0D0FB58B10120254936
:102B100008600021B81D28442154A01DC1192CA013
:102B200004F066FB1EE06678608885B228BA050C62
:102B300005F40047C5F30E050FB117A000E017A07C
:102B400003462A463146264804F052FB15480068E1
:102B500030B10021281D2154211D1DA004F048FB87
:102B600000E000BF00BFAFF2807004F041FB07B08F
:102B7000BDE8F08F0A48545450202573525350201A
:102B8000636F64653A2025642C20736571233A20B5
:102B900025640A0D00000000796573006E6F000067
:102BA000887D0008CC000020746578740000000067
:102BB000786D6C006A61766173637269707400008D
:102BC00068746D6C000000006A736F6E0000000096
:102BD000436F6E74656E743A200A25730A0D000007
:102BE000447D000810B50446F84801680068401CA0
:102BF000F64A1060F6484454042C04D0104600688D
:102C0000B0F5805F0CDBF1480168F148FEF7C3FDC9
:102C1000EE480168EE4803F03DFB0020EB490860F8
:102C2000204610BD2DE9F04107460E460025A84676
:102C30001DE016F8014B022C09D0042C07D0102CF3
:102C400005D02046FFF7CEFF2819C5B20DE01020B1
:102C5000FFF7C8FF44F08000FFF7C4FF05F1100044
:102C6000C5B244F080002844C5B208F10108B84557
:102C7000DFDB2846BDE8F08130B503460A46002078
:102C800000240BE012F8011B022903D0042901D013
:102C9000102901D1801C00E0401C641C9C42F1DB27
:102CA00030BD2DE9F0470746884691469A46089D73
:102CB000002480260220FFF795FFE9B241F0800052
:102CC000FFF790FF45F080002044C4B246EA8A1026
:102CD000C6B27F2D02DD46EAE510C6B246F080009E
:102CE0002044C4B246F08000FFF77CFF47F080002C
:102CF000FFF778FF47F080002044C4B249464046C1
:102D0000FFF790FF2044C4B244F080042046FFF750
:102D100069FF0420FFF766FF0020BDE8F08770B56B
:102D200001464FF0FF32AB480078082873D2DFE845
:102D300000F004142C5A7377C3E702290BD100BFAB
:102D40000120A44B18700020A34B1860A34B1870EF
:102D5000A34B186000E00A4622E101F0800000B9B0
:102D600017E102209B4B187001F07F039D4800681B
:102D700040F2E93460439C4C04EBC0004380974828
:102D800000780844954B18700AE101F0800000B902
:102D9000FFE003208F4B18709248006840F2E9333F
:102DA0005843914B03EBC000408801F03F0340EAD9
:102DB000C3138C48006840F2E93460438A4C04EB4A
:102DC000C0004380C1F380138648006840F2E934B4
:102DD0006043854C04EBC0000371804800780844D0
:102DE0007E4B1870DCE001F0800000B9D1E00420D7
:102DF000784B187001F07F037A48006840F2E9349C
:102E00006043794C04EBC000437174480078084477
:102E1000724B1870C4E0BBE005206E4B187000BF09
:102E20006D480068401C6C4B1860022900D1B0E06E
:102E3000042903D10020674B18703CE0102908D109
:102E40000620644B1870654800780844634B18707E
:102E500031E06448006840F2E9335843624B03EBC9
:102E6000C00040885C4B1B6898420FDA0720594B22
:102E700018705C48006840F2E93358435A4B03EB42
:102E8000C00000F5805080F8461F14E053480078D9
:102E90000844524B18705348006840F2E9335843D5
:102EA000514B03EBC000801D4D4B1C681B685B1C25
:102EB0004B4D2B60015573E047480068401C464B62
:102EC00018607F291ADD454800780844434B187084
:102ED00001F07F044348006840F2E9335843424B15
:102EE00003EBC000801D3E4B1D681B685B1C3C4E05
:102EF000336044550520374B187000E049E04FE03F
:102F0000042941D13748006840F2E9335843364B31
:102F100003EBC00000F5805090F8460F00F07F00F2
:102F20002E4B1B7803F07F0398422DD12C4800884C
:102F300083B22C48006840F2E93460432A4C04EB29
:102F4000C000438001232748006840F2E934604311
:102F5000254C04EBC00000F5805080F8473F214825
:102F6000006840F2E93460431F4C04F830301D48DB
:102F70000068401C0A2390FBF3F403FB1400194B78
:102F800018600020134B18700020124B187007E0D7
:102F900000BF00200F4B1870022900D1D0E600BFFF
:102FA00000BF501C08B1104670BD4FF0FF30FBE76A
:102FB00070B504460E461546502C02D0702C1AD11E
:102FC00014E031462846FFF711F915E0D40000203F
:102FD000386A0020D8000020E4000020EC00002027
:102FE000E8000020DC000020387A00203146284626
:102FF000FFF7D1FA00E000BF00BF002070BD4A48D3
:1030000000684A490968884201D1012070470020C0
:10301000FCE770B5044640F2E9306043444901EBF7
:10302000C00040797F2825D040F2E930604301EBB1
:10303000C0004079F0B140F2E930604301EBC000DC
:1030400000F5805090F8470FA0B140F2E933634398
:103050000D4605EBC3039A1D40F2E933634305EBCC
:10306000C303598840F2E933634305EBC30358793E
:10307000FFF79EFF002070BD10B504462046FEF706
:103080002DFB10BD10B5FEF79AFB80F0010010BDBE
:103090002DE9F84307460D4614469846B4F5FA5F05
:1030A00002DD0020BDE8F88329462046FFF7E4FD55
:1030B000064643462A46214638460096FFF7F1FD6C
:1030C000F0E710B505E0FEF784FB04462046FFF765
:1030D00026FEFEF774FB0028F5D01FE012480068BA
:1030E00040F2E9314843124911F8300060B10E480E
:1030F0000068FFF78EFF00210B48006840F2E932BC
:1031000050430B4A02F8301007480068401C0A215F
:1031100090FBF1F201FB120003490860FFF76FFF1B
:103120000028DBD010BD0000E0000020DC00002003
:10313000387A002032490143324A1160704770B535
:10314000002100230F22C4781CB32E4C246804F401
:10315000E064C4F5E064C4F30721C1F10404E3B200
:103160000A4144789C40E1B28478144021430C0722
:10317000210E254C05786155047804F01F050124C3
:10318000AC4005786D11AD0005F1E025C5F80041B2
:1031900009E0047804F01F050124AC401B4D0678BB
:1031A000761145F8264070BD194A0A400243154B76
:1031B0001B1F1A60704739B1124A121D1268024370
:1031C000104B1B1D1A6006E00E4A121D1268824346
:1031D0000C4B1B1D1A607047042808D14FF0E021EA
:1031E000096941F004014FF0E022116107E04FF05E
:1031F000E021096921F004014FF0E02211617047DC
:103200000000FA050CED00E000E400E080E100E0E1
:1032100080FFFF1F10B504468C48844208D101216D
:10322000084600F007FB0021012000F003FB5EE0F0
:103230008748844208D10121022000F0FBFA0021D6
:10324000022000F0F7FA52E08248844208D10121BE
:10325000042000F0EFFA0021042000F0EBFA46E031
:103260007D48844208D10121082000F0E3FA0021C2
:10327000082000F0DFFA3AE07848844208D10121C2
:10328000102000F0D7FA0021102000F0D3FA2EE031
:103290007348844208D10121202000F0CBFA00219C
:1032A000202000F0C7FA22E06E48844208D10121B4
:1032B000402000F0BFFA0021402000F0BBFA16E0E9
:1032C0006948844208D10121802000F0B3FA00212E
:1032D000802000F0AFFA0AE06448844207D101215F
:1032E000801500F0A7FA0021A01500F0A3FA10BD88
:1032F000F0B50A4600210023002400BF3DE001256F
:1033000005FA01F3156805EA03049C4234D1056807
:103310004F000326BE40B543056015794E00B54009
:103320000668354305601579012D02D01579022D07
:1033300016D185684F000326BE40B5438560557998
:103340004E00B540866835438560456801268E404D
:10335000B5434560456896798E40B6B235434560C1
:10336000C5684F000326BE40B543C560D5794E0001
:10337000B540C6683543C560491C1029BFD3F0BDB0
:103380004FF6FF7101600021017141718171C171BE
:10339000704708B54FF480320092009A0A430092B9
:1033A000009AC261C161009AC261C2690092C26999
:1033B000009208BD0246002013690B400BB10120AA
:1033C00000E0002070470146086980B2704702465D
:1033D000002053690B400BB1012000E00020704732
:1033E0000146486980B27047018370474183704746
:1033F0000AB1018300E0418370474161704742692F
:103400004A4042617047F0B5002300244D07ED0E9D
:1034100002FA05F3CE1000F1200555F826504E07AC
:10342000F70E0F26BE40B543CF1000F1200646F838
:103430002750CE1000F1200555F8265045EA030428
:10344000CE1000F1200545F82640F0BD00000240F6
:103450000004024000080240000C0240001002403C
:103460000014024000180240001C024000200240EC
:10347000F948006840F00100F74908600020F6496B
:1034800008310860F4480068F4490840F2490860CF
:10349000F348091D0860F348EF4984310860EE489D
:1034A000006820F48020EC4908600020EA490C31D3
:1034B000086070470021E84A921C1170114608709C
:1034C000704710B501460022002300204A11012A4E
:1034D00002D1E14C236808E0022A03D1DE4C7034AB
:1034E000236802E0DC4C7434236801F01F020124DD
:1034F00094401C400CB1012000E0002010BD38B504
:10350000002000900024002500BF3120FFF7D9FFE4
:1035100005460098401C00900098B0F5A06F01D0BF
:10352000002DF2D03120FFF7CCFF08B1012400E0DC
:103530000024204638BD01460020C74A106820F00C
:10354000F80040EAC10010607047C7490860704742
:103550000021C14A703211701170012802D0042874
:103560000AD104E00121BC4A7032117005E0052146
:10357000B94A7032117000E000BF00BF7047BB490C
:103580000860704770B5049C41EA82150126C6EBBD
:10359000530645EA0645054345EA0465AE4E361D29
:1035A000356070BDB04908667047820142EA017219
:1035B000A94B84331A607047AB4988667047AA49A3
:1035C000C864704702460020A34B0833186820F0F7
:1035D000EC6042EA010318439F4B083318607047C0
:1035E000024600209C4B0833186820F0784042EADD
:1035F00001031843984B08331860704701460020B8
:10360000954A0832106820F00300084310607047A4
:1036100091480830006800F00C0070470146002017
:103620008D4A0832106820F0F0000843106070479F
:1036300001460020884A0832106820F4E050084310
:103640001060704701460020834A0832106820F459
:10365000604040EAC10010607047F0B500210022D0
:1036600000240225002602237B4F08373F6807F01D
:103670000C0121B1042905D0082937D105E07C4F80
:10368000076036E07B4F076033E0734F3F1D3F68B4
:10369000C7F38056704F3F1D3F6807F03F036EB180
:1036A000744FB7FBF3F7DFF8B0C10CF1040CDCF892
:1036B00000C0CCF3881C07FB0CF40CE06C4FB7FB8C
:1036C000F3F7DFF894C10CF1040CDCF800C0CCF384
:1036D000881C07FB0CF4604F3F1D3F68C7F3014790
:1036E0007F1C7D00B4FBF5F7076002E0604F0760C8
:1036F00000BF00BF584F08373F6807F0F0010909C5
:103700005D4F7A5C0768D7404760534F08373F6882
:1037100007F4E051890A584F7A5C4768D7408760C0
:103720004D4F08373F6807F46041490B524F7A5CB0
:103730004768D740C760F0BD002100F44072B2F581
:10374000407F0AD1444A0832116821F4F8114B4AEB
:1037500002401143404A083211603F4A70321268F9
:10376000C0F30B031A433C4B70331A6070473F4958
:103770004439086070473D49403908607047404906
:10378000086070473F490860704739B1324A3032AB
:1037900012680243304B30331A6006E02E4A303252
:1037A000126882432C4B30331A60704739B12A4A71
:1037B000343212680243284B34331A6006E0264A3A
:1037C000343212688243244B34331A60704739B163
:1037D000214A3832126802431F4B38331A6006E020
:1037E0001D4A3832126882431B4B38331A607047C7
:1037F00039B1194A403212680243174B40331A60FC
:1038000006E0154A403212688243134B40331A6077
:10381000704739B1104A4432126802430E4B4433A8
:103820001A6006E00C4A4432126882430A4B443361
:103830001A60704739B1084A103212680243064BC9
:1038400010331A6006E0044A103212688243024BB9
:1038500010331A607047000000380240FFFFF6FA8C
:10386000103000240030002000004742800E474204
:103870000024F40000127A00ED000020FFFCFF0F8E
:103880005C014742E011474229B15E4A1268024397
:103890005C4B1A6004E05B4A12688243594B1A6021
:1038A000704739B1574A121D12680243554B1B1D10
:1038B0001A6006E0534A121D12688243514B1B1DC9
:1038C0001A60704739B14F4A0C32126802434D4BAF
:1038D0000C331A6006E04B4A0C3212688243494BA3
:1038E0000C331A60704739B1464A103212680243ED
:1038F000444B10331A6006E0424A10321268824389
:10390000404B10331A60704739B13E4A3C3212685E
:1039100002433C4B3C331A6006E03A4A3C321268A0
:103920008243384B3C331A60704739B1354A4032D4
:1039300012680243334B40331A6006E0314A40328A
:10394000126882432F4B40331A60704739B12D4AB9
:103950004432126802432B4B44331A6006E0294A72
:10396000443212688243274B44331A60704739B19E
:10397000244A4C3212680243224B4C331A6006E050
:10398000204A4C32126882431E4B4C331A607047F7
:1039900039B11C4A5032126802431A4B50331A6034
:1039A00006E0184A503212688243164B50331A60B0
:1039B000704739B1134AD21F12780243114BDB1FF3
:1039C0001A7006E00F4AD21F127882430D4BDB1F9C
:1039D0001A7070470B486030006840F080700949E9
:1039E00060310860704701460020064A083A1268B4
:1039F0000A400AB1012000E0002070470149891FF8
:103A0000087070471438024010B50446FA488442E2
:103A100008D101211020FFF766FF00211020FFF7D9
:103A200062FF57E0F548844209D101214804FFF7BD
:103A300049FF00214FF40030FFF744FF4AE0F0480F
:103A4000844209D101218804FFF73CFF00214FF493
:103A50008020FFF737FF3DE0EA48844209D1012189
:103A6000C804FFF72FFF00214FF40020FFF72AFFC3
:103A700030E0E548844209D101210805FFF722FF23
:103A800000214FF48010FFF71DFF23E0DF48844240
:103A900008D101212020FFF726FF00212020FFF779
:103AA00022FF17E0DA48844209D101218807FFF795
:103AB00009FF00214FF08040FFF704FF0AE0D548DE
:103AC000844207D101214005FFF7FCFE002160057B
:103AD000FFF7F8FE10BD2DE9FF4705460E4600240E
:103AE000A14600BFA046B08900B100BF2C8A24F4D3
:103AF0004054F08804432C82AC8941F20C6084432A
:103B0000B08831890843718908430443AC81AC8A89
:103B100024F44074B0890443AC826846FFF79DFDED
:103B2000B548854202D0B948854202D1DDF80C90F3
:103B300001E0DDF80890A88900F4004040B109EBED
:103B4000C90000EB091031684900B0FBF1F707E04C
:103B500009EBC90000EB091031688900B0FBF1F7EF
:103B60006420B7FBF0F004012009642101FB107808
:103B7000A88900F4004040B1322000EBC800B0FB3F
:103B8000F1F000F00700044308E0322000EB0810D9
:103B90006421B0FBF1F000F00F0004432C81BDE87C
:103BA000FF874FF41651016000218180C18001819F
:103BB0000C21418100218181704710B5024600200F
:103BC000108A20F470600B884C8823438C88234330
:103BD000CC8823431843108210BD0021018041800E
:103BE0008180C180704721B1828942F40052828174
:103BF00004E082894DF6FF731A4082817047028B80
:103C000002F47F420283028B0A430283704721B190
:103C1000828942F40042828103E08289C2F30E026B
:103C20008281704721B1828A42F40062828204E07C
:103C3000828A4FF2FF731A4082827047C1F30802F2
:103C40008280704701468888C0F308007047028A66
:103C50004FF6F0731A400282028A0A4302827047CA
:103C600021B1828942F00202828104E082894FF60A
:103C7000FD731A408281704782894FF2FF731A40A8
:103C8000828182890A4382817047028A4FF6DF73FC
:103C90001A400282028A0A430282704721B1028AD4
:103CA00042F48042028204E0028A4BF6FF731A401B
:103CB00002827047818941F001018181704721B101
:103CC000828A42F00802828204E0828A4FF6F77309
:103CD0001A4082827047028BD2B20283028B42EA80
:103CE00001220283704721B1828A42F0200282823F
:103CF00004E0828A4FF6DF731A408282704721B156
:103D0000828A42F01002828204E0828A4FF6EF73C8
:103D10001A4082827047828A4FF6FB731A40828271
:103D2000828A0A438282704721B1828A42F002026B
:103D3000828204E0828A4FF6FD731A4082827047C5
:103D40001AB1838A0B43838202E0838A8B43838286
:103D50007047F0B50346002400260025002040F6F9
:103D60006A17B94200D100BF1846C1F3421401F0EE
:103D70001F06012707FA06F5012C01D10C3004E0DB
:103D8000022C01D1103000E014301AB107682F4323
:103D9000076002E00768AF430760F0BD02460020FD
:103DA000B1F5007F00D100BF13880B400BB101209B
:103DB00000E00020704701F40072B2F5007F00D1EE
:103DC00000BFCA430280704770B50246002400233A
:103DD0000025002040F66A16B14200D100BFC1F3B1
:103DE000421501F01F03012606FA03F3012D13D13A
:103DF0009689334017E00000001001400044004065
:103E000000480040004C00400050004000140140B9
:103E100000780040007C0040022D02D1168A334019
:103E200001E0968A33400C12012606FA04F4168843
:103E3000344013B10CB1012000E0002070BD10B57A
:103E40000022002340F66A14A14200D100BF0A12EA
:103E500001249440A3B2DC43048010BD10B5044695
:103E6000F848844209D101214805FFF72BFD0021C4
:103E70004FF40010FFF726FD18E0F348844209D103
:103E800001218805FFF71EFD00214FF48000FFF798
:103E900019FD0BE0ED48844208D10121C805FFF768
:103EA00011FD00214FF40000FFF70CFD10BD2DE9BE
:103EB000FF4704460D460026B1460427DFF89083ED
:103EC000A6884FF6C07006406846FFF7C6FBDDF8CF
:103ED0000880E048B8FBF0F01FFA80F946EA0906CE
:103EE000A68020884FF6FE71084020800026DA491F
:103EF000286888420CD828684000B8FBF0F087B2E8
:103F0000042F00DA04273E4309F10100208427E052
:103F1000E8884BF6FF71884206D1286800EB400024
:103F2000B8FBF0F087B209E0286800EBC00101EBB4
:103F30000010B8FBF0F087B247F48047C7F30B00DE
:103F400008B947F0010747F4004006434FF4967064
:103F500009FB00F04FF47A7190FBF1F0401C2084D3
:103F6000A683208840F00100208026884FF6F53097
:103F70000640A8886989084306432680A8892989BC
:103F800008432081BDE8FF8741F2883101600021AC
:103F900081804BF6FF71C1800021018141814FF486
:103FA00080418181704721B1028842F00102028084
:103FB00004E002884FF6FE731A400280704729B170
:103FC000828C4FF6EF731A40828403E0828C42F0B9
:103FD0001002828470470A460021818C4FF6F073EC
:103FE000194002F00F0319438184704721B1028800
:103FF00042F48072028004E002884FF6FF631A40A8
:104000000280704721B1028842F40072028004E00D
:1040100002884FF6FF531A400280704712B141F0F8
:10402000010101E001F0FE010182704721B1028827
:1040300042F48062028004E002884FF6FF331A40A7
:10404000028070470A46002181894FF601731940AA
:1040500002F0FE0319438181704721B1828942F049
:104060000102828104E082894FF6FE731A40828148
:10407000704721B1028842F04002028004E00288C9
:104080004FF6BF731A400280704721B1028842F494
:104090000042028003E00288C2F30E0202807047F1
:1040A00021B9028842F08002028004E002884FF6C3
:1040B0007F731A4002807047B1F5804F05D0828B24
:1040C0004BF6FF731A40828303E0828B42F48042F6
:1040D00082837047B1F5006F04D1028842F4006218
:1040E000028004E002884FF2FF731A40028070479A
:1040F000B1F5005F04D1028842F40052028004E06E
:1041000002884DF6FF731A400280704721B1028881
:1041100042F01002028004E002884FF6EF731A406A
:1041200002807047018270470146088AC0B270471A
:1041300021B1028842F48052028004E002884EF6E7
:10414000FF731A4002807047B1F5006F04D10288F6
:1041500042F40062028004E002884FF2FF731A40CA
:104160000280704721B1028842F02002028004E000
:1041700002884FF6DF731A40028070470146088BB1
:104180000012704721B1828842F40062828004E00C
:1041900082884FF2FF731A408280704721B1828873
:1041A00042F48052828004E082884EF6FF731A4007
:1041B0008280704708B50246002000900092009867
:1041C000084400900098008808BD1AB183880B430A
:1041D000838002E083888B438380704770B50246FA
:1041E0000024002500230020958A138B1B0445EA38
:1041F000030626F07F4404EA01068E4201D1012025
:1042000000E0002070BD10B5014600200023002210
:104210008B8A0A8B120443EA020424F07F4010BD0B
:104220000CB50246002000230193009300920B0F6F
:10423000019321F07F41019B83B1009B14330093D4
:1042400010E000000054004000580040005C0040B6
:1042500000127A0040420F00A0860100090C009B6A
:1042600018330093009B1B680B400BB1012000E04A
:1042700000200CBD002221F07F42D343838270478F
:1042800030B5024600200023948801F0E06504EA7E
:10429000154321F07F41948A0C4014B10BB10120E9
:1042A00000E0002030BD002221F07F42D343838212
:1042B000704700000CB50020019000907248006823
:1042C00040F480307049086000BF6F48006800F417
:1042D000003000900198401C0190009818B9019896
:1042E000B0F5A06FF1D16848006800F4003010B15B
:1042F0000120009001E0002000900098012846D1A4
:1043000061484030006840F080505F4940310860AB
:104310005E48006840F440405C4908605A480830F4
:1043200000685949083108600846006840F40040B8
:1043300008600846006840F4A05008605448091F0F
:104340000860081F006840F08070091F086000BF07
:104350004D48006800F000700028F9D040F2057068
:104360004C49086048480830006820F0030046497E
:10437000083108600846006840F00200086000BF8D
:1043800041480830006800F00C000828F8D10CBD46
:1043900010B53D48006840F001003B49086000202E
:1043A000394908310860384800683B4908403649B7
:1043B00008603A48091D0860081F006820F4802042
:1043C000091F0860002030490C310860FFF772FFB8
:1043D0004FF000603249086010BD70B50020002227
:1043E000022300240221284D08352D6805F00C0019
:1043F00020B1042806D0082834D107E0294D2A4EE0
:10440000356033E0294D284E35602FE01E4D2D1DBF
:104410002D68C5F380541C4D2D1D2D6805F03F01FE
:1044200054B1224DB5FBF1F5174E361D3668C6F373
:10443000881605FB06F209E01A4DB5FBF1F5124EA0
:10444000361D3668C6F3881605FB06F20E4D2D1D87
:104450002D68C5F301456D1C6B00B2FBF3F5124EE0
:10446000356003E00F4D104E356000BF00BF064DB4
:1044700008352D68C5F303150D4E705D0A4D2D6886
:10448000C540094E356070BD0038024000700040E4
:1044900019544007003C0240FFFFF6FE1030002494
:1044A00008ED00E00024F4000001002000127A0072
:1044B000040100200648804706480047FEE7FEE763
:1044C000FEE7FEE7FEE7FEE7FEE7FEE7FEE7FEE7C4
:1044D0009143000889010008024604207047E64A1B
:1044E0000260AFF20B024260816070472DE9F0413B
:1044F00086B0044688466668206830B1A06820B15E
:10450000AFF22B00864200D103E0C821DB48FDF763
:10451000BFF841462046A26890470746082F00D1C1
:1045200003E0D221D548FDF7B3F800BF0025A0680D
:104530000090D3492046A26890470EE06D1C062DDE
:1045400000DA03E0DC21CD48FDF7A2F8A0684DF8C1
:104550002500CB492046A2689047A068B042EDD123
:104560000098A06000BF00BF5DF82520C449091D68
:104570002046904700BF6D1E002DF4DA009EC04912
:104580000C312046B0470746082FCFD06660A660A2
:1045900006B0BDE8F0812DE9F04705460E464FF024
:1045A000FF383768D6F80890B94508D100BFB4493C
:1045B00008312846C84700BF4FF0000891E0B049D5
:1045C0002846B847AF68B94502D14FF0000888E0E7
:1045D000AB492846C847A868B84208D100BFA849D7
:1045E00008312846C84700BF4FF0000879E0A868A6
:1045F0003168884205D100BFA14908312846C84723
:104600006FE000244FF001087760AF689C492846AE
:104610007268904782461BE008F10108A86846F8D6
:104620002800A86848450ED10124B8F1060F00DA29
:1046300004E04FF4FF719148FDF72AF8A8F1010852
:104640004FF0030A04E08E492846AA689047824644
:10465000BAF1000FE0D0002C43D1B8F1060F00DA18
:1046600004E04FF402718548FDF712F800BF844959
:1046700008312846C84700BF44464FF0040A00BF2F
:1046800056F82400B84206D14FF0030AA4F10108FD
:104690004FF0FF3400E0641E002CF1DABAF1030F92
:1046A0001FD04FF0040A00BF754908312846B847AB
:1046B000032802D172492846B847AF68444600BF74
:1046C00056F82400B84206D1A4F101084FF0FF3497
:1046D0004FF0030A00E0641E002CF1DABAF1030F78
:1046E000E2D14046BDE8F0872DE9F04387B00446AB
:1046F000894665681DB1A068A84200D104E04FF466
:10470000C8715E48FCF7C4FF00BFA7684946204651
:10471000B8478046B8F1020F03D159492046B8473F
:104720008046B8F1000FF0D0B8F1080F58D3A06858
:1047300001900295039709E0514908312046A847A6
:10474000032802D14E492046A847A568BD42F3D1AF
:1047500001A92046FFF71FFF064609E000BF01A898
:1047600050F826204649091D2046904700BF761E76
:10477000002EF3DA019DA5602BE00026A0680190D1
:104780003F492046A268904708E0761C01A9A0682E
:1047900041F826003A492046A2689047A068A842FE
:1047A000F3D10198A060062E00DA04E04FF4CD7139
:1047B0003248FCF76DFF00BF00BF01A850F826206B
:1047C0002F49091D2046904700BF761E002EF3DAC0
:1047D000019D2B490C312046A8470828CDD000BFA9
:1047E0006560A56007B0BDE8F0832DE9F04104469F
:1047F0000D460026D4E90110884200D104E04FF4B0
:1048000016711E48FCF744FF00BFA068A84202D101
:104810000126042704E01A492046A268904707466B
:10482000042FF2D16068A0603046BDE8F0812DE928
:10483000F04104460D46666800276068A06000BF2E
:10484000A068A84203D101274FF0040805E0A6683C
:104850000B492046A26890478046B8F1040FEFD17B
:104860006068A06007B104E040F22A310348FCF719
:104870000FFF3046BDE8F081A47B0008847B000870
:10488000947B000870B5054695F82440002C06D9A5
:10489000202C04D8294850F8240000B903E06421F2
:1048A0002748FCF7F5FE00BF00BFEFF31180064676
:1048B00000BF72B63F2000F03DF862B600BF00BFF7
:1048C0001E4840F82450304600F034F870BD70B5F2
:1048D000044694F82450002D07D9202D05D81748F8
:1048E00050F82500A04200D103E0C8211448FCF78D
:1048F000CFFE00BF00BFEFF31180064600BF72B6C7
:104900003F2000F017F862B600BF00BF00200B493F
:1049100041F825006060304600F00CF870BD10B51D
:1049200003460A4603E000241C705B1C521E002A4A
:10493000F9D110BD80F311887047000008B3012041
:10494000AC7B00082DE9F04704460D46904605B1C2
:1049500003E06421CF48FCF79BFE00BF00F093F911
:10496000814600BF72B63F2000F090F962B600BFEA
:1049700000BFE67D4FF6FF7080450DD1002E01DDB2
:10498000012710E0002700BF484600F07FF96E21A4
:10499000C048FCF77DFE06E008F0FF00B04201DAF7
:1049A000012700E00027A87810B1E878401CE870E3
:1049B000002F32D0701EC6B2E675207EB04200DDF8
:1049C0002676E068002819D1E56000BFB24800698A
:1049D00094F82410A1F101014FF0010202FA01F252
:1049E00040EA0200AC49086100BFEFF3058020B93E
:1049F00000F033FE08B100F0BDFD0AE0607D2169E2
:104A000041F82050607D08B9217D6175607D401EB0
:104A10006075484600F03AF905E0484600F036F97E
:104A2000284600F0B8F93846BDE8F0872DE9F04196
:104A300004460E4600BF00F026F9804600BF72B65D
:104A40003F2000F023F962B600BF00BFE57D00BF44
:104A500035B9404600F01AF9D2218E48FCF718FE0D
:104A600000BFB07810B1F078401CF070681EC5B27D
:104A7000E575207EA84200DD2576E768E660002F18
:104A800018D100BF8448006994F82410A1F10101F5
:104A90004FF0010202FA01F240EA02007E49086189
:104AA00000BFEFF3058020B900F0D7FD08B100F09A
:104AB00061FD0CE0A07D401CA075A17D207D8142A0
:104AC00001D10021A175A07D216941F820704046E7
:104AD00000F0DCF8BDE8F0812DE9F041044600BFAC
:104AE00000F0D1F8074600BF72B63F2000F0CEF8C4
:104AF00062B600BF00BFE06800B103E06E21654808
:104B0000FCF7C6FDE668E07D401CC5B2E575207D7A
:104B1000A8420CDBA07D216951F82000E060A07D57
:104B200008B9217DA175A07D401EA0750FE0002071
:104B3000E06000BF207D401CA84207D0384600F04E
:104B4000A5F84FF49B715348FCF7A2FD00BF38460F
:104B500000F09CF83046BDE8F08170B50446202C8A
:104B600004D84E4850F8240000B104E04FF4C87156
:104B70004848FCF78DFD00BF00F085F8064600BFF1
:104B800072B63F2000F082F862B600BF00BF434813
:104B900050F82400057E304600F078F8284670BDB5
:104BA00070B504460D460021204600F05BFA3C48F3
:104BB0002060657570BD0023837570472DE9F04155
:104BC00004460F4600BF00F05EF8064600BF72B60E
:104BD0003F2000F05BF862B600BF00BFA57D00215A
:104BE000A175304600F052F804E0607D00F02CFB27
:104BF000681EC5B2002DF8DCBDE8F0812DE9F0415A
:104C000004460E46174600BF00F03DF8054600BFBB
:104C100072B63F2000F03AF862B600BF00BFE0680D
:104C200000281ED11F48E060E07DA0F10100E07582
:104C300000BF1948006994F82410A1F101014FF058
:104C4000010202FA01F240EA02001349086100BFC2
:104C5000EFF3058020B900F000FD08B100F08AFCF8
:104C600000BFA07D401CA075284600F00FF8012071
:104C7000BDE8F08170B504460D464FF461710548FA
:104C8000FCF706FD70BDEFF31180704780F31188CB
:104C900070470000B47B0008E8B3012008B301208E
:104CA000BC7B0008D07B000870B505460E46144654
:104CB0006E480068032800D203E0C8216C48FCF766
:104CC000E7FC6A48006850B168480068401E00EB85
:104CD0008000684901EB80008089A04200D203E097
:104CE000C9216348FCF7D4FC6049096801EB8101E4
:104CF000604A02EB810023463246294600F0BCF8A8
:104D00005A480068401C5949086070BD2DE9F041BF
:104D100007460E469046002509E005EB85005549FB
:104D200001EB80008089B84200D304E06D1C4F483D
:104D300000688542F1D300BF4C480068854200D22C
:104D400004E04FF49B714A48FCF7A2FC4FF6FF7257
:104D5000964201D0324600E00022114605EB850262
:104D6000444B03EB820000F0F5F8044634B1A4F89C
:104D70000080681CA0700020E07009E04FF6FF7012
:104D8000864200D004E04FF4A0713948FCF780FC63
:104D90002046BDE8F08170B50446A07878B300BF26
:104DA00000BFEFF31180054600BF72B63F2000F050
:104DB00059F862B600BF00BFE078012806DDE07850
:104DC000401EE070284600F04DF817E0A078461E1F
:104DD000284600F047F825480068864200D204E0E3
:104DE0004FF4CD712248FCF753FC06EB8601214AB3
:104DF00002EB8100214600F084F800BF00BF70BDC7
:104E000070B504460E46A07808B106B904E04FF428
:104E1000FA711748FCF73CFC00BF00BFEFF31180AC
:104E2000054600BF72B63F2000F01CF862B600BF16
:104E300000BFE078401CE070284600F013F82046E0
:104E400070BD70B5044625462846FFF7A4FF70BD27
:104E500006480068401E00EB8000064901EB800018
:104E60008089704780F3118870470000140100208A
:104E7000D47B00088CB301202DE9F0470446884616
:104E800016461D46B8F1000F05D0042E03D3281D89
:104E9000A84200D903E064216F48FCF7F9FBC4F88D
:104EA00000800420A0814FF0010904E0A089001DCA
:104EB000A08109F10109A089A9B28842F6DBA58980
:104EC000AE4200D303E06E216348FCF7E1FB761BA2
:104ED0000120E081276807E007EB890038603F6820
:104EE000761BE089401CE081AE42F5D2002038609C
:104EF000E0892082E0896082C4F80480A760BDE870
:104F0000F08770B504460D46208AE189884206DAAA
:104F10006068A84203D8A068A84200D303E0C82173
:104F20004D48FCF7B5FB00BF00BFEFF3118006460C
:104F300000BF72B63F2000F08BF862B600BF00BF22
:104F4000206828602560208A401C2082304600F0BE
:104F50007FF870BD2DE9F0410446884600BF00BFD0
:104F6000EFF31180074600BF72B63F2000F070F8E3
:104F700062B600BF00BF208A1FFA88F1884237DD81
:104F8000256800BF3DB9384600F062F84FF49B71C8
:104F90003148FCF77DFB00BF2E68208A401E20822E
:104FA000208A68B900BF3EB1384600F051F84FF48E
:104FB000A0712948FCF76CFB00BF0020608215E05F
:104FC00000BF6068B04202D8A068B04207D238463D
:104FD00000F03EF84FF4A5711F48FCF759FB00BFE5
:104FE000608A218A884201DD208A6082266000E092
:104FF0000025384600F02CF82846BDE8F08170B551
:105000000446002C06D915480068844202D8032CB7
:1050100000D804E04FF4C8710F48FCF739FB00BF1B
:1050200000BFEFF31180054600BF72B63F2000F0CD
:105030000FF862B600BF00BF601E00EB8000084999
:1050400001EB8000468A284600F002F8304670BD29
:1050500080F3118870470000DB7B000814010020FA
:105060008CB3012070B504460D4628212046FFF779
:1050700056FC29462046FFF732FA0148206070BDF1
:10508000E47B000800230360416002720AB14372AE
:105090008372531CC372C37A037370472DE9F047C0
:1050A00004460D46174605B103E0C8216548FCF7E4
:1050B000EFFA00BF00BFEFF31180814600BF72B668
:1050C0003F2000F0BBF862B600BF00BFE67A4FF6A3
:1050D000FF70874201D1002E02DCF8B2B0421DDA27
:1050E000A87810B1E878401CE870701EC6B2E6726D
:1050F000207BB04200DD2673206808B925600AE0F5
:10510000617A606840F82150607A08B9207A60724C
:10511000607A401E60724FF001080EE000BF4FF64B
:10512000FF70874206D1484600F088F8D2214548F2
:10513000FCF7AEFA00BF4FF00008484600F07EF8DA
:105140004046BDE8F0872DE9F04104460E4600BF19
:1051500000BFEFF31180804600BF72B63F2000F021
:105160006DF862B600BF00BFE57A00BF3DB94046AA
:1051700000F064F84FF496713248FCF789FA00BFEA
:10518000B07810B1F078401CF070681EC5B2E572BE
:10519000207BA84200DD25732768266067B1A07ACE
:1051A000401CA072A07A217A884201D10020A0720E
:1051B000A17A606840F82170404600F03FF8BDE8F1
:1051C000F0812DE9F041044600BF00BFEFF31180EC
:1051D000064600BF72B63F2000F030F862B600BF4E
:1051E00000BF256825B3E07A401CC7B2E772207A79
:1051F000B8420CDBA17A606850F821002060A07AE8
:1052000008B9207AA072A07A401EA0720FE0002098
:10521000206000BF207A401CB84207D0304600F022
:105220000DF84FF4CD710748FCF732FA00BF00BF0C
:10523000304600F003F82846BDE8F08180F311887D
:1052400070470000F87B00082DE9F0410646B2489F
:1052500000EB061500BF00F059F9074600BF72B613
:105260003F2000F056F962B600BF00BF00BF6C6877
:10527000DCB9A94800EB06108068A8B100BF35B9B9
:10528000384600F046F96E21A448FCF701FA00BF49
:10529000A14800EB06108068686000209E4901EB81
:1052A000061188606C6800E03FE0A08958B960682A
:1052B0006860E07800F07F00E070384600F029F97F
:1052C000BFF36F8F24E0A089401EA081A089C8B9D8
:1052D000D4F80880E08918B1E089A081254605E06E
:1052E00060686860E07800F07F00E070384600F0A9
:1052F00010F9D8F800004FF6FF722146C368404607
:10530000984705E02546384600F003F9BFF36F8F54
:1053100000BF00F0FBF8074600BF72B63F2000F068
:10532000F8F862B600BF00BFA1E700BF384600F042
:10533000F0F8BDE8F0810146774A02EB01125268AD
:105340000AB1002007E0744A02EB011292680AB128
:10535000002000E0012070472DE9F04104460F468F
:1053600015461E46042D02DB022E00D204E04FF447
:1053700096716A48FCF78CF900206060A081E0819A
:105380002580A760A070E670BDE8F0812DE9F047A8
:1053900004460D461746E07800F00F06B4F80C807E
:1053A000A06848B1B8F1000F06D12DB1022E03D28A
:1053B0002088042800DB04E04FF4C8715748FCF74C
:1053C00067F900BF00F0A2F8814600BF72B63F2027
:1053D00000F09FF862B600BF00BFA581E781E078CA
:1053E00000F0800060B9E07840F08000E0704A484A
:1053F00000EB061080686060474800EB0610846090
:10540000484600F086F8BDE8F08770B5044600BF56
:1054100000F07CF8064600BF72B63F2000F079F835
:1054200062B600BF00BFA08938B10125E07840F026
:105430004000E0700020A08104E00025E07800F04A
:105440007F00E070304600F064F8284670BD2DE91A
:10545000F04104460D46E07800F00F06A06830B138
:10546000022E04D21DB12088042800DB04E04FF492
:1054700016712A48FCF70CF900BF00F047F8804687
:1054800000BF72B63F2000F044F862B600BF00BF14
:10549000A08990B90027E07800F0800070B9E0782A
:1054A00040F08000E0701C4800EB061080686060EF
:1054B000194800EB0610846000E00127A5814046F2
:1054C00000F027F83846BDE8F0810146C87800F0C2
:1054D0004002C87840F04000C8700AB1012070470F
:1054E0000020FCE770B5044600BF00F00FF8064648
:1054F00000BF72B63F2000F00CF862B600BF00BFDC
:10550000A589304600F005F8284670BDEFF31180FC
:10551000704780F311887047C8B30120FF7B0008F3
:1055200010B50020F4490860F4490860F4490860A7
:105530002021F448FFF7F3F98421F348FFF7EFF94E
:105540001421F248FFF7EBF92821F148FFF7E7F9BA
:105550002120EE494872EE48EB490860EB49C860EB
:1055600090F82400087200F0E5FD10BD10B5FCF7BE
:105570008DF810BD2DE9F041E448067A456815B173
:10558000202E00D204E04FF42F71E248FCF780F89F
:1055900095F8244000BFDC4850F82450DB490C72D9
:1055A0000020486000F0A5F92846FFF795FA074665
:1055B000286839464268284690473846FFF7EBFB93
:1055C00000BF72B63F2000F094F962B600BFE868F1
:1055D00038B9CE480069611E01228A409043CB4908
:1055E0000861CA480069B0FA80F0C0F12004C748D9
:1055F000407AA0420ED3C548847A5CB10069611E2E
:1056000001228A40104000B104E040F2C621C148A6
:10561000FCF73EF8BC4850F8245005B104E04FF4C4
:105620003471BC48FCF734F8E86948B9B44202D98F
:10563000B64845600BE00020B4494860002406E00D
:10564000B248456000244FF08050B3490860002CF8
:10565000A1D1AE490E72BDE8F08170B5AB480069CA
:10566000B0FA80F0C0F12005A848407AA8420ED3D5
:10567000A648857A5DB10069691E01228A40104002
:1056800000B104E040F26221A248FCF701F89E4814
:1056900050F8254004B104E04FF41B719D48FBF71E
:1056A000F7FF9A480068A8B9E06958B99748007AA6
:1056B000A84202D2954844601CE00020934948600B
:1056C000002517E09148446000254FF08050924932
:1056D00008600FE08D480068A04207D08B48446006
:1056E00000254FF080508C49086003E00020874976
:1056F00048600025284670BD10B5002083494872D7
:10570000FFF7ABFF08B1FFF735FF10BD00BF72B662
:105710003F2000F0EEF862B600BFFFF7EDFFFBF7A9
:1057200089FF002000F0E5F800BFFBF7B0FFFCE7C1
:105730002DE9F05F04460D4616461F46DDE90B9A3B
:10574000DDF8288000BFEFF3058050B9002D08D99F
:10575000202D06D8B8F1000F03D1B9F1000F00D108
:1057600003E0C8216B48FBF793FF3A46314604F14A
:105770000C00FFF787FC0020E06184F8245084F8D7
:1057800025502046FFF77EF800BF206800B103E0F7
:10579000C6216048FBF77CFF20685146026820461E
:1057A000904700BF00BF00F0A1F8834600BF72B66B
:1057B0003F2000F09EF862B600BF00BFFFF74DFF2C
:1057C00008B1FFF7D7FE584600F093F8BDE8F09F08
:1057D00070B5044600BF00F089F8064600BF72B6F7
:1057E0003F2000F086F862B600BF00BF00BFEFF3B5
:1057F000058000B904E04FF4C8714648FBF748FF44
:105800004248407AA04213D24048407A05023F49BC
:105810004C720846807A05430846006820B1084665
:10582000006890F8240000E000203849887200E009
:10583000FF25304600F05DF8284670BD2DE9F041A7
:105840000446FF2C26D03148477A250A00BF00F0D5
:105850004DF8064600BF72B63F2000F04AF862B627
:1058600000BF00BF00BFEFF3058010B9AF4200D901
:1058700004E04FF4FA712748FBF70AFF23494D7201
:105880008C72FFF7EAFE08B1FFF774FE304600F0B5
:1058900030F800BFBDE8F08170B500BF00F026F819
:1058A000054600BF72B63F2000F023F862B600BF85
:1058B00000BF1648407A202800DC04E04FF448710D
:1058C0001448FBF7E5FE114804681CB9007A0E493C
:1058D00051F82040284600F00CF804B104E040F2F2
:1058E0007A310C48FBF7D4FE204670BDEFF31180EF
:1058F000704780F3118870471401002018010020C0
:105900001C010020C8B3012008B30120E8B3012026
:10591000FCB30120077C000804ED00E070B50446EC
:105920000E46154605B103E064219048FBF7B0FE32
:10593000A680E5800020206070BD2DE9F047044678
:105940000F464FF0010900BF00F009F9804600BF83
:1059500072B63F2000F006F962B600BF00BF84486F
:10596000056800BFEFF3058030B9E088002803DD4B
:1059700015B1A86800B903E0C8217C48FBF788FE90
:105980007B48807A95F82410884200D003E0C92132
:105990007648FBF77DFEA088002803DDA088401E26
:1059A000A08054E095F82460AC603A460621284671
:1059B00000F018FA2068711E01228A40104320600E
:1059C0006B48006901228A40904369490861FFF7EA
:1059D00044FE404600F0C6F8BFF36F8F00BF00F0F2
:1059E000BEF8804600BF72B63F2000F0BBF862B63A
:1059F00000BF00BFA868A04200D103E0F0215B48CF
:105A0000FBF746FE288D88B92068711E01228A4066
:105A1000104038B1206801228A40904320604FF046
:105A2000000911E0A088401EA0800DE02068711ED2
:105A300001228A40104000B903E0FA214B48FBF7ED
:105A400027FEA088401EA0800020A86000BF40461E
:105A500000F088F84846BDE8F08770B50446E08855
:105A6000002800DD04E04FF496714048FBF710FE7B
:105A700000BF00F074F8064600BF72B63F2000F089
:105A800071F862B600BF00BFA088002804DDA088BE
:105A9000401EA080012500E00025304600F062F89D
:105AA000284670BD2DE9F04104460127E088002812
:105AB00000DD04E04FF4C8712C48FBF7E9FD00BF9E
:105AC00000F04DF8804600BF72B63F2000F04AF863
:105AD00062B600BF00BFA088E188884238DAA0889B
